:100000000C9434000C9439010C9446000C94460076
:100010000C9446000C9446000C9446000C94460048
:100020000C9446000C9446000C9446000C9471010C
:100030000C9446000C9446000C9446000C94460028
:100040000C9446000C9446000C9446000C94460018
:100050000C9446000C9446000C9446000C94460008
:100060000C9446000C94460011241FBECFEFD8E03C
:10007000DEBFCDBF21E0A0E0B1E001C01D92A33002
:10008000B207E1F70E9431010C94ED010C940000DD
:10009000E4E6F0E080818E7F808380E680937C00C0
:1000A00083E880937A000895CF93C82F0E94480078
:1000B000ECE7F0E080818C7FC370C82BC083EAE757
:1000C000F0E0808180648083808186FDFDCFEAE757
:1000D000F0E080818061808380917900CF910895E4
:1000E00017B81AB814B888E28AB908958FE38093D4
:1000F0007E0083E080937F0080B7806880BF14BC5F
:10010000109280001092B00015BC109281001092E5
:10011000B10084B7877F84BFE0E6F0E080E18083B0
:10012000108287EF80936400109202010895E4E644
:10013000F0E090819F7B90831092B20093E29093C5
:10014000B0009BE09093B100E3EBF0E092E5908388
:100150009081853608F084E6899FC001112464E609
:1001600070E00E94C5016093B40008951092800071
:10017000109281000895E4E6F0E09081977F9083EB
:10018000982F990F990F890F809301011092850084
:1001900010928400109280008DE08093810083ECA7
:1001A00090E0909389008093880082E080936F00B4
:1001B0008FB780688FBF089591E090930201E4E6C5
:1001C000F0E080818F7D808316BC83E284BD8CE06B
:1001D00085BD8EE487BD98BD82E08093000183E0F9
:1001E0000E94BB0008958AE088BD81E080930001F1
:1001F00083E00E94BB00089581E088BD1092000159
:1002000083E00E94BB00109202010895E4E6F0E052
:10021000808189668083EAE7F0E08081807880834E
:1002200014B817B81AB883E08093690081E08DBBD9
:100230008FB780688FBF84E083BF80E685BF85B7B6
:100240008F7D85BF83B7816083BF08950E9454006E
:100250000E94970010920001299A8EE10E94BB0033
:1002600008950E9476000E94700080E00E9426019E
:10027000FFCF1F920F920FB60F9211242F933F932F
:100280004F935F936F937F938F939F93AF93BF939E
:10029000EF93FF9380910201811112C081E08CBB2A
:1002A000E8988FB78F778FBF8FE083BFE4E6F0E0E9
:1002B00080818E7B80830E94700080E00E942601F6
:1002C000FF91EF91BF91AF919F918F917F916F912E
:1002D0005F914F913F912F910F900FBE0F901F9004
:1002E00018951F920F920FB60F9211242F933F93E0
:1002F0004F935F936F937F938F939F93AF93BF932E
:10030000EF93FF9382E086BB80910101815080933F
:100310000101219911C019990FC00E94B6001092D5
:100320000101219A29981092B4001092B000109205
:10033000B1000E94DC0018C080910101811114C03D
:1003400080910001811103C00E9406010DC08091BF
:100350000001813019F40E94FC0006C08091000168
:10036000823011F40E94F300FF91EF91BF91AF91A1
:100370009F918F917F916F915F914F913F912F91BD
:100380000F900FBE0F901F90189597FB072E16F435
:10039000009407D077FD09D00E94D90107FC05D051
:1003A0003EF4909581959F4F0895709561957F4F8C
:1003B0000895AA1BBB1B51E107C0AA1FBB1FA617AC
:1003C000B70710F0A61BB70B881F991F5A95A9F7FE
:0E03D00080959095BC01CD010895F894FFCF63
:00000001FF
