:100000000C9434000C94F3000C9446000C944600BD
:100010000C9446000C9446000C9446000C94460048
:100020000C9446000C9446000C9446000C94460038
:100030000C9446000C9446000C9427010C94460046
:100040000C9446000C9446000C9446000C94460018
:100050000C9446000C9446000C9446000C94460008
:100060000C9446000C94460011241FBECFEFD8E03C
:10007000DEBFCDBF21E0A0E0B1E001C01D92A13004
:10008000B207E1F70E94EB000C947E010C94000093
:10009000E4E6F0E080818E7F808380E680937C00C0
:1000A00083E880937A000895CF93C82F0E94480078
:1000B000ECE7F0E080818C7FC370C82BC083EAE757
:1000C000F0E0808180648083808186FDFDCFEAE757
:1000D000F0E080818061808380917900CF910895E4
:1000E00017B81AB888E08AB908958FE380937E0024
:1000F00083E080937F0080B7806880BF15BC10923A
:1001000081001092B10084B7877F84BFE0E6F0E001
:1001100080E18083108287EF809364000895E4E695
:10012000F0E090819F7B90831092B20093E29093D5
:10013000B0009BE09093B100E3EBF0E092E5908398
:100140009081853608F084E6899FC001112464E619
:1001500070E00E9456016093B4000895E4E6F0E078
:10016000808181668083EAE7F0E080818078808307
:1001700014B817B81AB883E08093690081E08DBB8A
:100180008FB780688FBF84E083BF80E685BF85B767
:100190008F7D85BF83B7816083BF0895E4E6F0E07B
:1001A00090819F7D9083880F880F8093000182E06B
:1001B00084BD95E095BD94EF97BD80936E008FB799
:1001C00080688FBF08950E9454000E948F0083E0D2
:1001D0000E94CE0008950E9475000E94700080E089
:1001E0000E94E300FFCF1F920F920FB60F921124CF
:1001F0002F933F934F935F936F937F938F939F932F
:10020000AF93BF93EF93FF9381E08CBBE8988FB7D8
:100210008F778FBF8FE083BFE4E6F0E080818E7B35
:1002200080830E94700080E00E94E300FF91EF91C4
:10023000BF91AF919F918F917F916F915F914F91FE
:100240003F912F910F900FBE0F901F9018951F9206
:100250000F920FB60F9211242F933F934F935F93FA
:100260006F937F938F939F93AF93BF93EF93FF937E
:1002700082E085BB809100018150809300018091D4
:100280000001811102C00E94AE00FF91EF91BF9169
:10029000AF919F918F917F916F915F914F913F911E
:1002A0002F910F900FBE0F901F90189597FB072E60
:1002B00016F4009407D077FD09D00E946A0107FC6C
:1002C00005D03EF4909581959F4F08957095619566
:1002D0007F4F0895AA1BBB1B51E107C0AA1FBB1F7C
:1002E000A617B70710F0A61BB70B881F991F5A95C2
:1002F000A9F780959095BC01CD010895F894FFCFA2
:00000001FF
